:020000040000FA
:03000000000004F9
:03000100000FFCF1
:03000200003FC4F8
:03000300008F2D3E
:0300040000FE08F3
:03000500018C2546
:0300060002395864
:030007000305717D
:0300080003F043BF
:0300090000F9A15A
:03000A0002215D73
:03000B0003674C3C
:03000C0000CB40E6
:03000D00024D0F92
:03000E0003EC8C74
:03000F0001A98CB8
:030010000383E582
:03001100017B6B05
:03001200038FF465
:0300130001C157D1
:03001400000F6A70
:03001500027A0369
:030016000100F9ED
:0300170003A4241B
:0300180002635C24
:03001900013E772E
:03001A0000354F5F
:03001B000347BCDC
:03001C00027596D4
:03001D0001BEB76A
:03001E000122F8C4
:03001F0000A2320A
:03002000003C4061
:0300210003F0FCED
:0300220003C040D8
:0300230003A9E747
:0300240003ADCC5D
:0300250003CBCA40
:030026000003BD17
:0300270000558100
:0300280000C0F124
:030029000145EBA3
:03002A0001E44AA4
:03002B00029BEC49
:03002C00036CADB5
:03002D0000566C0E
:03002E0001590570
:03002F0002745602
:0300300003A83EE4
:0300310000F49B3D
:0300320002594C24
:0300330003D62FC2
:03003400016B233A
:03003500031807A6
:0300360000DCBC2F
:0300370002B921EA
:0300380000AD1602
:0300390002B87B8F
:03003A0000DB30B8
:03003B0003151694
:03003C0001660F4B
:03003D0003CDFAF6
:03003E00024CBAB7
:03003F0000E22FAD
:03004000038E3DEF
:030041000250C4A6
:030042000129A6EB
:030043000018C6DC
:03004400031E0791
:0300450002394C31
:03004600016A76D6
:0300470000B16A9B
:03004800000E0B9C
:0300490003803CF5
:03004A000307E1C8
:03004B0002A4DE2E
:03004C0002571741
:03004D00021E711F
:03004E0001FACFE5
:03004F0001EC17AA
:0300500001F22D8D
:03005100020CF7A7
:03005200023C5A13
:0300530002803BED
:0300540002D8804F
:0300550003450E52
:0300560003C5CB14
:03005700005A9FAD
:0300580001036E33
:0300590001C01FC4
:03005A0002909A77
:03005B000374C467
:03005C00006C85B0
:03005D000177C464
:03005E000296689F
:03005F0003C8587B
:03006000010D7D12
:030061000265BE77
:0300620003D103C4
:03006300014F3416
:0300640002E0397E
:030065000083FC19
:03006600023A63F8
:030067000003583B
:0300680001DEC5F1
:0300690003CC9134
:03006A0001CCA620
:03006B0003DEEEC3
:03006C000203523A
:03006D000039BB9C
:03006E00028213F8
:03006F0000DC446E
:030070000348380A
:0300710001C5DAEC
:0300720000551323
:0300730002F5CFC4
:0300740001A7F7EA
:03007500006B76A7
:030076000340380C
:0300770002262737
:03007800011D2E39
:0300790000253926
:03007A00033E330F
:03007B0002680711
:03007C0001A2A23C
:03007D0000EDEEA5
:03007E000049D95D
:03007F0003B64D78
:0300800003333710
:0300810002C08436
:03008200025E1FFC
:03008300020BF677
:0300840001C9F4BB
:03008500019807D8
:0300860001761CE4
:0300870001641FF2
:030088000161FE15
:03008900016FA55F
:03008A00018D03E2
:03008B0001BA05B2
:03008C0001F698E2
:03008D000242A983
:03008E00029E28A7
:03008F0003090161
:03009000038323C4
:03009100000C7CE4
:0300920000A4FACD
:03009300014C8B92
:0300940002031E46
:0300950002C8A2FC
:03009600039D05C2
:03009700008035B1
:03009800017223CF
:030099000272BC34
:03009A000381F0EF
:03009B00009FAE15
:03009C0001CBE5B0
:03009D00030685D2
:03009E00004F7D93
:03009F0001A6BDFA
:0300A000030C3519
:0300A100007FD30A
:0300A200020189CF
:0300A30003914680
:0300A400012EF931
:0300A50002DA94E8
:0300A600009407BC
:0300A700025B41B8
:0300A800003034F1
:0300A9000212D070
:0300AA000003054B
:0300AB000200C48C
:0300AC00000BFE48
:0300AD000224A486
:0300AE00004AA75E
:0300AF00027DF7D8
:0300B00000BE8708
:0300B100030C47F6
:0300B200016728BB
:0300B30003CF1D5B
:0300B400024416ED
:0300B50000C6057D
:0300B6000354DB15
:0300B70001F08BCA
:0300B800009907A5
:0300B900034E3FB4
:0300BA000210270A
:0300BB0000DEB0B4
:0300BC0003B9CCB9
:0300BD0002A16E2F
:0300BE0001958821
:0300BF0000960C9C
:0300C00003A2EDAB
:0300C10002BC1D61
:0300C20001E18ECB
:0300C300011335F1
:0300C400005102E6
:0300C500039AEAB1
:0300C60002F0DF66
:0300C7000252D40E
:0300C80001C0BCB8
:0300C900013A8A6F
:0300CA0000C03241
:0300CB000051A63B
:0300CC0003EEDA66
:0300CD000397C2D4
:0300CE00034C518F
:0300CF00030C7AA5
:0300D00002D83122
:0300D10002AF6B10
:0300D2000292197E
:0300D30002803177
:0300D4000279A707
:0300D500027E6D3B
:0300D600028E791E
:0300D70002A9BEBD
:0300D80002D03122
:0300D9000301C55B
:0300DA00033E7072
:0300DB0003862574
:0300DC0003D8D96D
:0300DD000036806A
:0300DE00009F0E72
:0300DF0001127A91
:0300E0000190B6D6
:0300E1000219B849
:0300E20002AD75F7
:0300E300034BE1EB
:0300E40003F4F230
:0300E50000A89CD4
:0300E6000166D4DC
:0300E700022F9055
:0300E8000302C54B
:0300E90003E067CA
:0300EA0000C86CDF
:0300EB0001BACA8D
:0300EC0002B776E2
:0300ED0003BE64EB
:0300EE0000CF8CB4
:0300EF0001EAE241
:0300F00003105B9F
:0300F100003FEEDF
:0300F20001799100
:0300F30002BD3813
:0300F400000ADA25
:0300F50001626D38
:0300F60002C3E65C
:0300F700002F3C9B
:0300F80001A465FB
:0300F90003235688
:0300FA0000AC0750
:0300FB00023E6C56
:0300FC0003DA7DA7
:0300FD0001802F50
:0300FE00032F7954
:0300FF0000E851C5
:0301000002AAAFA1
:03010100007687FE
:03010200024BD1DC
:03010300002A844B
:030104000212964E
:030105000003FDF7
:0301060001FEB146
:030107000002A84B
:03010800020FDA09
:0301090000263C91
:03010A000245C6E5
:03010B00006E6F14
:03010C0002A02E20
:03010D0000DAFA1B
:03010E00031ECA03
:03010F00016B95EC
:0301100003C152D6
:03011100021FFAD0
:03011200008782E1
:0301130002F7E20E
:0301140001711264
:0301150003F309E8
:03011600027DBFA8
:0301170001112BA8
:0301180003AD45EF
:030119000252038C
:03011A0000FF5F84
:03011B0003B54FDA
:03011C000273CBA0
:03011D00013ACCD8
:03011E00000A488C
:03011F0002E238C1
:0301200001C29386
:0301210000AB52DE
:03012200039C6DCE
:030123000295DB67
:03012400019794AC
:0301250000A191A5
:0301260003B3CA56
:0301270002CE36CF
:0301280001F0CF14
:03012900011B8C2B
:03012A00004E651F
:03012B00038954F1
:03012C0002CC50B2
:03012D0002175165
:03012E00016A5112
:03012F0000C547C1
:0301300000282C78
:030131000392F93D
:030132000305A61C
:0301330002802C1B
:0301340002028341
:03013500018CA595
:03013600011E891E
:0301370000B829E4
:0301380000597EED
:0301390000027F42
:03013A0003B327E5
:03013B00036B6EE5
:03013C00032B4D45
:03013D0002F2BD0E
:03013E0002C1B645
:03013F00029833F0
:0301400002762B19
:03014100025B99C5
:03014200024875FB
:03014300023CB8C3
:0301440002385C22
:03014500023B5A20
:030146000245ABC4
:0301470002574814
:0301480002702B17
:0301490002904DD4
:03014A0002B7A851
:03014B0002E63495
:03014C00031BECA6
:03014D000358C88C
:03014E00039CC34C
:03014F0003E7D6ED
:030150000039FA79
:0301510000932AEE
:0301520000F35E59
:03015300015A90BE
:0301540001C8BB24
:03015500023DD791
:0301560002B9DF0C
:03015700033CCC9A
:0301580003C69843
:0301590000573E0E
:03015A0000EEB6FE
:03015B00018CFB19
:03015C0002320666
:03015D0002DDD3ED
:03015E0003905AB1
:03015F00004995BF
:0301600001097F13
:0301610001D012B8
:03016200029D48B3
:0301630003711B0A
:03016400004B85C8
:03016500012C80EA
:030166000214067A
:030167000302137D
:0301680003F69FFC
:0301690000F1A6FC
:03016A0001F3217D
:03016B0002FB0B89
:03016C0000095E29
:03016D00011E155B
:03016E0002392A29
:03016F00035A9799
:03017000008258B2
:0301710001B06674
:0301720002E4BBE9
:03017300001F5416
:03017400016029FE
:0301750002A736A8
:0301760003F4751A
:030177000147E15C
:0301780002A1756C
:0301790000012B57
:03017A000166FE1D
:03017B0002D2E8C5
:03017C000044E557
:03017D0001BCEFD3
:03017E00033B013F
:03017F0000BF16A8
:0301800002492908
:0301810003D9346B
:03018200016F32D8
:03018300030B1F4C
:0301840000ACF5D7
:030185000254B071
:030186000002492B
:0301870001B5BD02
:03018800036F06FC
:03018900012E2024
:03018A0002F30578
:03018B0000BDB004
:03018C00028E1DC3
:03018D00006446C5
:03018E0002402804
:03018F000021BD8F
:030190000208FF63
:0301910003F5EC87
:0301920001E87D04
:0301930003E0AED8
:0301940001DE7A0F
:0301950003E1DDA6
:0301960001EAD2A9
:0301970003F95415
:03019800020D5FF6
:030199000026EE4F
:03019A000245FC1F
:03019B00006A8572
:03019C0002948545
:03019D0000C3F6A6
:03019E0002F8D490
:03019F0001331B0E
:0301A0000372C621
:0301A10001B7D1D2
:0301A20000023820
:0301A3000251F511
:0301A40000A705AC
:0301A500030163F0
:0301A60001610BE9
:0301A70003C5F895
:0301A800023027FB
:0301A900009F9222
:0301AA0003143605
:0301AB00018E0EB4
:0301AC00000D162D
:0301AD0002914A72
:0301AE00011AA68D
:0301AF0003A9257C
:0301B000023CC34B
:0301B10000D57CFA
:0301B20003734C88
:0301B30002162F02
:0301B40000BE206A
:0301B500036B1CBD
:0301B600021D1E09
:0301B70000D4234E
:0301B8000390268B
:0301B900025124CC
:0301BA0001171812
:0301BB0003E1FE5F
:0301BC0002B1D3BA
:0301BD0001869226
:0301BE00006037A7
:0301BF00033EBF3D
:0301C000022226F2
:0301C100010A68C8
:0301C20003F780C0
:0301C30002E96BE3
:0301C40001E02631
:0301C50000DBACB0
:0301C60003DBF95F
:0301C70002E10B47
:0301C80001EADC6D
:0301C90000F969D1
:0301CA00000CAF77
:0301CB000324AA60
:0301CC0002415598
:0301CD000162AE1E
:0301CE000088B0F6
:0301CF0003B3591E
:0301D00002E2A3A5
:0301D10002168D86
:0301D200014F11C9
:0301D300008C2D70
:0301D40003CDDC7C
:0301D50003141CF4
:0301D600025EE8DE
:0301D70001AE3E38
:0301D80001021908
:0301D900005A7653
:0301DA0003B75117
:0301DB000318A85E
:0301DC00027E762A
:0301DD0001E8B87E
:0301DE0001576B5B
:0301DF0000CA8BC8
:0301E000004214C6
:0301E10003BE0456
:0301E200033E5782
:0301E30002C30A4A
:0301E400024C19B1
:0301E50001D980BD
:0301E600016B3D6D
:0301E70001014CC7
:0301E800009BAACF
:0301E900003A5386
:0301EA0003DD45ED
:0301EB0003847B0F
:0301EC00032FF4EA
:0301ED0002DFAA84
:0301EE0002939CDD
:0301EF00024BC6FA
:0301F000020824DE
:0301F10001C8B58D
:0301F200018D7309
:0301F30001565D55
:0301F40001236E76
:0301F50000F4A56E
:0301F60000C9FD40
:0301F70000A374EE
:0301F8000081067D
:0301F9000062B1F0
:0301FA0000487149
:0301FB000032438C
:0301FC00002024BC
:0301FD00001212DB
:0301FE00000808EE
:0301FF00000204F7
:00000001ff
