:020000040000FA
:03000000000004F9
:03000100001FEBF2
:03000200003FA418
:03000300005F2E6D
:03000400007E87F4
:03000500009DB6A5
:0300060000BCB18A
:0300070000DB819A
:0300080000FA23D8
:0300090001189645
:03000A000136E2DA
:03000B000154FCA1
:03000C000172EF8F
:03000D000190B0AF
:03000E0001AE4AF6
:03000F0001CBB969
:0300100001E8FA0A
:03001100020612D2
:03001200022302C4
:03001300023FC7E2
:03001400025C602B
:030015000278D19D
:0300160002951C34
:0300170002B13DF6
:0300180002CD32E4
:0300190002E905F4
:03001A000304AC30
:03001B0003202C93
:03001C00033B871C
:03001D000356BACD
:03001E000371C7A4
:03001F00038CAFA0
:0300200003A76FC4
:0300210003C2090E
:0300220003DC7F7D
:0300230003F6CF12
:030024000010FBCE
:03002500002B03AA
:030026000044E5AE
:03002700005EA2D6
:030028000078401D
:030029000091B68D
:03002A0000AB0A1E
:03002B0000C439D5
:03002C0000DD4AAA
:03002D0000F634A6
:03002E00010EFDC3
:03002F000127A600
:0300300001402C60
:03003100015891E2
:030032000170D189
:030033000188F24F
:0300340001A0F335
:0300350001B8D639
:0300360001D0975F
:0300370001E836A7
:0300380001FFB411
:0300390002171497
:03003A00022E553E
:03003B0002457803
:03003C00025C79EA
:03003D0002735EED
:03003E00028A2211
:03003F0002A0CB51
:0300400002B751B3
:0300410002CDBB32
:0300420002E408CD
:0300430002FA3985
:0300440003104C5A
:0300450003263D52
:03004600033C1860
:030047000351D38F
:03004800036770DB
:03004900037CF243
:03004A00039258C6
:03004B0003A7A266
:03004C0003BCD022
:03004D0003D1E2FA
:03004E0003E6DAEC
:03004F0003FBB5FB
:0300500000107825
:0300510000251F68
:030052000039A9C9
:03005300004E1943
:0300540000626FD8
:030055000076AB87
:03005600008AD04D
:03005700009ED632
:0300580000B2C62D
:0300590000C69D41
:03005A0000DA5772
:03005B0000EDFBBA
:03005C000101851A
:03005D000114F695
:03005E0001284E28
:03005F00013B93CF
:03006000014EBA94
:030061000161CA70
:030062000174C264
:030063000187A171
:03006400019A6B93
:0300650001AD19D1
:0300660001BFB423
:0300670001D2388B
:0300680001E4A20E
:0300690001F6F6A7
:03006A0002093652
:03006B00021B5B1A
:03006C00022D6AF8
:03006D00023F64EB
:03006E0002514AF2
:03006F0002631811
:030070000274D344
:0300710002867391
:03007200029802EF
:0300730002A97768
:0300740002BAD8F5
:0300750002CC2793
:0300760002DD5D4B
:0300770002EE8016
:0300780002FF8FF5
:03007900031087EA
:03007A0003216CF3
:03007B0003323D10
:03007C000342F844
:03007D000353A189
:03007E00036433E5
:03007F000374B453
:03008000038521D4
:030081000395786C
:0300820003A5BE15
:0300830003B5EED4
:0300840003C60EA2
:0300850003D61986
:0300860003E6107E
:0300870003F5F589
:030088000005C6AA
:03008900001589D6
:03008A0000253519
:03008B000034CD71
:03008C00004455D8
:03008D000053CE4F
:03008E00006331DB
:03008F0000728379
:030090000081C329
:030091000090F0EC
:0300920000A00CBF
:0300930000AF18A3
:0300940000BE119A
:0300950000CCF7A5
:0300960000DBCCC0
:0300970000EA95E7
:0300980000F94725
:030099000107EB71
:03009A0001167DCF
:03009B000124FF3E
:03009C00013372BB
:03009D000141D14D
:03009E00015023EB
:03009F00015E619E
:0300A000016C8F61
:0300A100017AAF32
:0300A2000188BC16
:0300A3000196BA09
:0300A40001A4AE06
:0300A50001B28C19
:0300A60001C05A3C
:0300A70001CE1C6B
:0300A80001DBCBAE
:0300A90001E96BFF
:0300AA0001F6FD5F
:0300AB00020480CC
:0300AC000211F44A
:0300AD00021F57D8
:0300AE00022CAD74
:0300AF000239F51E
:0300B00002472BD9
:0300B100025455A1
:0300B20002617078
:0300B300026E7961
:0300B400027B7656
:0300B5000288645A
:0300B60002954868
:0300B70002A21B87
:0300B80002AEDCB9
:0300B90002BB96F1
:0300BA0002C83D3C
:0300BB0002D4D795
:0300BC0002E164FA
:0300BD0002EDE26F
:0300BE0002FA52F1
:0300BF000306B580
:0300C00003130A1D
:0300C100031F52C8
:0300C200032B917C
:0300C3000337BC44
:0300C4000343E112
:0300C500034FF3F3
:0300C600035BF9E0
:0300C7000367F2DA
:0300C8000373DFE0
:0300C900037FBFF3
:0300CA00038B9114
:0300CB0003975741
:0300CC0003A31477
:0300CD0003AEC0BF
:0300CE0003BA5F13
:0300CF0003C5F373
:0300D00003D17CDD
:0300D10003DCF657
:0300D20003E868D8
:0300D30003F3CA6A
:0300D40003FF2007
:0300D500000A6DB1
:0300D6000015AC66
:0300D7000020E026
:0300D800002C06F3
:0300D900003724C9
:0300DA00004233AE
:0300DB00004D369F
:0300DC0000582E9B
:0300DD0000631CA1
:0300DE00006E01B0
:0300DF000078D6D0
:0300E0000083A3F7
:0300E100008E632B
:0300E2000099186A
:0300E30000A3C3B4
:0300E40000AE600B
:0300E50000B8F56B
:0300E60000C37FD5
:0300E70000CDFB4E
:0300E80000D86DD0
:0300E90000E2D75B
:0300EA0000ED36F0
:0300EB0000F78794
:0300EC000101CD42
:0300ED00010C0FF4
:0300EE00011640B8
:0300EF0001206984
:0300F000012A8A58
:0300F10001349D3A
:0300F200013EA626
:0300F3000148A71A
:0300F40001529D19
:0300F500015C8922
:0300F60001666C34
:0300F70001704352
:0300F800017A107A
:0300F9000183D4AC
:0300FA00018D8CE9
:0300FB0001973D2D
:0300FC0001A0E27E
:0300FD0001AA80D5
:0300FE0001B41436
:0300FF0001BD9EA2
:0301000001C71C18
:0301010001D09595
:0301020001DA031C
:0301030001E365B0
:0301040001ECBF4C
:0301050001F612EE
:0301060001FF5A9C
:0301070002089853
:030108000211CB16
:03010900021AF9DE
:03010A0002241DAF
:03010B00022D378B
:03010C0002364771
:03010D00023F4F5F
:03010E0002484E56
:03010F0002514753
:03011000025A355B
:030111000263186E
:03011200026BF687
:030113000274CCA7
:03011400027D96D3
:0301150002865B04
:03011600028F1441
:030117000297C587
:0301180002A06DD5
:0301190002A91028
:03011A0002B1A887
:03011B0002BA39EC
:03011C0002C2C25A
:03011D0002CB40D2
:03011E0002D3B851
:03011F0002DC28D7
:0301200002E49165
:0301210002ECEFFE
:0301220002F5449F
:0301230002FD9446
:030124000305DDF3
:03012500030E1CAA
:030126000316536A
:03012700031E852F
:030128000326ACFF
:03012900032ECDD5
:03012A000336E7B2
:03012B00033EF69A
:03012C0003470086
:03012D00034F037A
:03012E000356FC79
:03012F00035EEF7D
:030130000366DC87
:03013100036EBF9B
:0301320003769CB5
:03013300037E71D7
:0301340003863F00
:03013500038E0531
:030136000395C668
:03013700039D7DA8
:0301380003A52BF1
:0301390003ACD93B
:03013A0003B47B90
:03013B0003BC15ED
:03013C0003C3A852
:03013D0003CB36BB
:03013E0003D2BE2B
:03013F0003DA3CA4
:0301400003E1B622
:0301410003E927A8
:0301420003F09235
:0301430003F7F7C8
:0301440003FF5363
:030145000006A809
:03014600000DF8B1
:030147000015425E
:03014800001C8414
:030149000023BFD1
:03014A00002AF494
:03014B000032235C
:03014C0000394B2C
:03014D0000406F00
:03014E00004789DE
:03014F00004E9EC1
:030150000055ACAB
:03015100005CB29D
:030152000063B493
:03015300006AB08F
:030154000071A493
:030155000078939C
:03015600007F7BAC
:0301570000865FC0
:03015800008D3BDC
:0301590000940F00
:03015A00009ADF29
:03015B0000A1AA56
:03015C0000A86E8A
:03015D0000AF29C7
:03015E0000B5E108
:03015F0000BC954C
:0301600000C34198
:0301610000C9E7EB
:0301620000D08545
:0301630000D71EA4
:0301640000DDB209
:0301650000E44271
:0301660000EACCE0
:0301670000F14D57
:0301680000F7CAD3
:0301690000FE4055
:03016A000104B2DB
:03016B00010B1F66
:03016C00011186F8
:03016D000117E790
:03016E00011E432C
:03016F00012499CF
:03017000012AE77A
:0301710001313128
:0301720001377AD8
:03017300013DB794
:030174000143F351
:03017500014A2814
:03017600015059DC
:03017700015683AB
:03017800015CA681
:030179000162C55B
:03017A000168DF3A
:03017B00016EF51D
:03017C0001750505
:03017D00017B10F3
:03017E00018115E7
:03017F00018714E1
:03018000018D0EE0
:03018100019305E2
:030182000198F8E9
:03018300019EE3F7
:0301840001A4CA09
:0301850001AAAA22
:0301860001B0893C
:0301870001B6615D
:0301880001BC3384
:0301890001C1FFB2
:03018A0001C7C8E2
:03018B0001CD8D16
:03018C0001D34B51
:03018D0001D9098C
:03018E0001DEBCD3
:03018F0001E46B1D
:0301900001EA1A67
:0301910001EFC0BB
:0301920001F56212
:0301930001FAFF6F
:0301940002009BCB
:0301950002062F30
:03019600020BBF9A
:0301970002114A08
:030198000216CF7D
:03019900021C50F5
:03019A000221CE71
:03019B00022745F3
:03019C00022CB77B
:03019D0002322704
:03019E0002379392
:03019F00023CFA25
:0301A00002425EBA
:0301A1000247BB57
:0301A200024D12F9
:0301A3000252689D
:0301A4000257B946
:0301A500025D05F3
:0301A60002624BA7
:0301A7000267915B
:0301A800026CCF17
:0301A90002720AD5
:0301AA0002774099
:0301AB00027C7360
:0301AC000281A22B
:0301AD000286CAFD
:0301AE00028BEED3
:0301AF0002910FAB
:0301B00002962C88
:0301B100029B4668
:0301B20002A05A4E
:0301B30002A56A38
:0301B40002AA7824
:0301B50002AF8115
:0301B60002B4860A
:0301B70002B98703
:0301B80002BE8301
:0301B90002C37905
:0301BA0002C86E0A
:0301BB0002CD5E14
:0301BC0002D24923
:0301BD0002D73333
:0301BE0002DC1A46
:0301BF0002E0FA61
:0301C00002E5D580
:0301C10002EAADA2
:0301C20002EF84C5
:0301C30002F455EE
:0301C40002F9211C
:0301C50002FDEB4D
:0301C6000302B180
:0301C700030770BB
:0301C800030C30F5
:0301C9000310EB35
:0301CA000315A07A
:0301CB00031A53C1
:0301CC00031F040A
:0301CD000323AF5A
:0301CE00032858AB
:0301CF00032CF905
:0301D00003319C5C
:0301D100033637BB
:0301D200033AD11C
:0301D300033F6681
:0301D4000343FAE8
:0301D50003488854
:0301D600034D13C3
:0301D70003519839
:0301D80003561CAF
:0301D900035A9D29
:0301DA00035F1BA5
:0301DB0003639328
:0301DC00036809AC
:0301DD00036C7C34
:0301DE000370EAC1
:0301DF0003755451
:0301E0000379C0E0
:0301E100037E2575
:0301E20003828510
:0301E3000386E0B0
:0301E400038B3A50
:0301E500038F93F2
:0301E6000393E799
:0301E70003983743
:0301E800039C85F0
:0301E90003A0CFA1
:0301EA0003A51555
:0301EB0003A9590C
:0301EC0003AD98C8
:0301ED0003B1D784
:0301EE0003B60F46
:0301EF0003BA440C
:0301F00003BE79D2
:0301F10003C2A79F
:0301F20003C6D46D
:0301F30003CAFD3F
:0301F40003CF2511
:0301F50003D347EA
:0301F60003D768C4
:0301F70003DB84A3
:0301F80003DF9F83
:0301F90003E3B469
:0301FA0003E7C850
:0301FB0003EBDA39
:0301FC0003EFE826
:0301FD0003F3F118
:0301FE0003F7F90B
:0301FF0003FC01FD
:00000001ff
