:020000040000FA
:020000001000EE
:020001000FF8F6
:020002000FF0FD
:020003000FE804
:020004000FE00B
:020005000FD812
:020006000FD019
:020007000FC820
:020008000FC027
:020009000FB92D
:02000A000FB134
:02000B000FA93B
:02000C000FA241
:02000D000F9A48
:02000E000F924F
:02000F000F8B55
:020010000F835C
:020011000F7C62
:020012000F7469
:020013000F6D6F
:020014000F6675
:020015000F5E7C
:020016000F5782
:020017000F4F89
:020018000F488F
:020019000F4195
:02001A000F3A9B
:02001B000F32A2
:02001C000F2BA8
:02001D000F24AE
:02001E000F1DB4
:02001F000F16BA
:020020000F0FC0
:020021000F07C7
:020022000F00CD
:020023000EF9D4
:020024000EF2DA
:020025000EEBE0
:020026000EE5E5
:020027000EDEEB
:020028000ED7F1
:020029000ED0F7
:02002A000EC9FD
:02002B000EC203
:02002C000EBB09
:02002D000EB50E
:02002E000EAE14
:02002F000EA71A
:020030000EA020
:020031000E9A25
:020032000E932B
:020033000E8C31
:020034000E8636
:020035000E7F3C
:020036000E7941
:020037000E7247
:020038000E6C4C
:020039000E6552
:02003A000E5F57
:02003B000E585D
:02003C000E5262
:02003D000E4B68
:02003E000E456D
:02003F000E3F72
:020040000E3878
:020041000E327D
:020042000E2C82
:020043000E2687
:020044000E1F8D
:020045000E1992
:020046000E1397
:020047000E0D9C
:020048000E07A1
:020049000E00A7
:02004A000DFAAD
:02004B000DF4B2
:02004C000DEEB7
:02004D000DE8BC
:02004E000DE2C1
:02004F000DDCC6
:020050000DD6CB
:020051000DD0D0
:020052000DCAD5
:020053000DC4DA
:020054000DBEDF
:020055000DB8E4
:020056000DB2E9
:020057000DADED
:020058000DA7F2
:020059000DA1F7
:02005A000D9BFC
:02005B000D9501
:02005C000D9005
:02005D000D8A0A
:02005E000D840F
:02005F000D7E14
:020060000D7918
:020061000D731D
:020062000D6D22
:020063000D6826
:020064000D622B
:020065000D5D2F
:020066000D5734
:020067000D5238
:020068000D4C3D
:020069000D4642
:02006A000D4146
:02006B000D3B4B
:02006C000D364F
:02006D000D3153
:02006E000D2B58
:02006F000D265C
:020070000D2061
:020071000D1B65
:020072000D1669
:020073000D106E
:020074000D0B72
:020075000D0676
:020076000D007B
:020077000CFB80
:020078000CF684
:020079000CF188
:02007A000CEB8D
:02007B000CE691
:02007C000CE195
:02007D000CDC99
:02007E000CD79D
:02007F000CD1A2
:020080000CCCA6
:020081000CC7AA
:020082000CC2AE
:020083000CBDB2
:020084000CB8B6
:020085000CB3BA
:020086000CAEBE
:020087000CA9C2
:020088000CA4C6
:020089000C9FCA
:02008A000C9ACE
:02008B000C95D2
:02008C000C90D6
:02008D000C8BDA
:02008E000C86DE
:02008F000C81E2
:020090000C7CE6
:020091000C78E9
:020092000C73ED
:020093000C6EF1
:020094000C69F5
:020095000C64F9
:020096000C5FFD
:020097000C5B00
:020098000C5604
:020099000C5108
:02009A000C4C0C
:02009B000C480F
:02009C000C4313
:02009D000C3E17
:02009E000C3A1A
:02009F000C351E
:0200A0000C3022
:0200A1000C2C25
:0200A2000C2729
:0200A3000C222D
:0200A4000C1E30
:0200A5000C1934
:0200A6000C1537
:0200A7000C103B
:0200A8000C0C3E
:0200A9000C0742
:0200AA000C0345
:0200AB000BFE4A
:0200AC000BFA4D
:0200AD000BF551
:0200AE000BF154
:0200AF000BEC58
:0200B0000BE85B
:0200B1000BE35F
:0200B2000BDF62
:0200B3000BDA66
:0200B4000BD669
:0200B5000BD26C
:0200B6000BCD70
:0200B7000BC973
:0200B8000BC576
:0200B9000BC07A
:0200BA000BBC7D
:0200BB000BB880
:0200BC000BB384
:0200BD000BAF87
:0200BE000BAB8A
:0200BF000BA78D
:0200C0000BA291
:0200C1000B9E94
:0200C2000B9A97
:0200C3000B969A
:0200C4000B929D
:0200C5000B8DA1
:0200C6000B89A4
:0200C7000B85A7
:0200C8000B81AA
:0200C9000B7DAD
:0200CA000B79B0
:0200CB000B75B3
:0200CC000B70B7
:0200CD000B6CBA
:0200CE000B68BD
:0200CF000B64C0
:0200D0000B60C3
:0200D1000B5CC6
:0200D2000B58C9
:0200D3000B54CC
:0200D4000B50CF
:0200D5000B4CD2
:0200D6000B48D5
:0200D7000B44D8
:0200D8000B40DB
:0200D9000B3CDE
:0200DA000B38E1
:0200DB000B34E4
:0200DC000B30E7
:0200DD000B2DE9
:0200DE000B29EC
:0200DF000B25EF
:0200E0000B21F2
:0200E1000B1DF5
:0200E2000B19F8
:0200E3000B15FB
:0200E4000B11FE
:0200E5000B0E00
:0200E6000B0A03
:0200E7000B0606
:0200E8000B0209
:0200E9000AFE0D
:0200EA000AFB0F
:0200EB000AF712
:0200EC000AF315
:0200ED000AEF18
:0200EE000AEC1A
:0200EF000AE81D
:0200F0000AE420
:0200F1000AE122
:0200F2000ADD25
:0200F3000AD928
:0200F4000AD62A
:0200F5000AD22D
:0200F6000ACE30
:0200F7000ACB32
:0200F8000AC735
:0200F9000AC338
:0200FA000AC03A
:0200FB000ABC3D
:0200FC000AB840
:0200FD000AB542
:0200FE000AB145
:0200FF000AAE47
:020100000AAA49
:020101000AA74B
:020102000AA34E
:020103000AA050
:020104000A9C53
:020105000A9955
:020106000A9558
:020107000A925A
:020108000A8E5D
:020109000A8B5F
:02010A000A8762
:02010B000A8464
:02010C000A8067
:02010D000A7D69
:02010E000A796C
:02010F000A766E
:020110000A7271
:020111000A6F73
:020112000A6C75
:020113000A6878
:020114000A657A
:020115000A617D
:020116000A5E7F
:020117000A5B81
:020118000A5784
:020119000A5486
:02011A000A5188
:02011B000A4D8B
:02011C000A4A8D
:02011D000A478F
:02011E000A4491
:02011F000A4094
:020120000A3D96
:020121000A3A98
:020122000A369B
:020123000A339D
:020124000A309F
:020125000A2DA1
:020126000A29A4
:020127000A26A6
:020128000A23A8
:020129000A20AA
:02012A000A1DAC
:02012B000A19AF
:02012C000A16B1
:02012D000A13B3
:02012E000A10B5
:02012F000A0DB7
:020130000A0AB9
:020131000A06BC
:020132000A03BE
:020133000A00C0
:0201340009FDC3
:0201350009FAC5
:0201360009F7C7
:0201370009F4C9
:0201380009F1CB
:0201390009EECD
:02013A0009EAD0
:02013B0009E7D2
:02013C0009E4D4
:02013D0009E1D6
:02013E0009DED8
:02013F0009DBDA
:0201400009D8DC
:0201410009D5DE
:0201420009D2E0
:0201430009CFE2
:0201440009CCE4
:0201450009C9E6
:0201460009C6E8
:0201470009C3EA
:0201480009C0EC
:0201490009BDEE
:02014A0009BAF0
:02014B0009B7F2
:02014C0009B4F4
:02014D0009B1F6
:02014E0009AEF8
:02014F0009ABFA
:0201500009A9FB
:0201510009A6FD
:0201520009A3FF
:0201530009A001
:02015400099D03
:02015500099A05
:02015600099707
:02015700099409
:0201580009910B
:02015900098F0C
:02015A00098C0E
:02015B00098910
:02015C00098612
:02015D00098314
:02015E00098016
:02015F00097E17
:02016000097B19
:0201610009781B
:0201620009751D
:0201630009721F
:02016400097020
:02016500096D22
:02016600096A24
:02016700096726
:02016800096428
:02016900096229
:02016A00095F2B
:02016B00095C2D
:02016C00095A2E
:02016D00095730
:02016E00095432
:02016F00095134
:02017000094F35
:02017100094C37
:02017200094939
:0201730009473A
:0201740009443C
:0201750009413E
:02017600093E40
:02017700093C41
:02017800093943
:02017900093744
:02017A00093446
:02017B00093148
:02017C00092F49
:02017D00092C4B
:02017E0009294D
:02017F0009274E
:02018000092450
:02018100092152
:02018200091F53
:02018300091C55
:02018400091A56
:02018500091758
:02018600091559
:0201870009125B
:02018800090F5D
:02018900090D5E
:02018A00090A60
:02018B00090861
:02018C00090563
:02018D00090364
:02018E00090066
:02018F0008FE68
:0201900008FB6A
:0201910008F86C
:0201920008F66D
:0201930008F36F
:0201940008F170
:0201950008EE72
:0201960008EC73
:0201970008E975
:0201980008E776
:0201990008E577
:02019A0008E279
:02019B0008E07A
:02019C0008DD7C
:02019D0008DB7D
:02019E0008D87F
:02019F0008D680
:0201A00008D382
:0201A10008D183
:0201A20008CF84
:0201A30008CC86
:0201A40008CA87
:0201A50008C789
:0201A60008C58A
:0201A70008C28C
:0201A80008C08D
:0201A90008BE8E
:0201AA0008BB90
:0201AB0008B991
:0201AC0008B792
:0201AD0008B494
:0201AE0008B295
:0201AF0008AF97
:0201B00008AD98
:0201B10008AB99
:0201B20008A89B
:0201B30008A69C
:0201B40008A49D
:0201B50008A19F
:0201B600089FA0
:0201B700089DA1
:0201B800089AA3
:0201B9000898A4
:0201BA000896A5
:0201BB000893A7
:0201BC000891A8
:0201BD00088FA9
:0201BE00088DAA
:0201BF00088AAC
:0201C0000888AD
:0201C1000886AE
:0201C2000883B0
:0201C3000881B1
:0201C400087FB2
:0201C500087DB3
:0201C600087AB5
:0201C7000878B6
:0201C8000876B7
:0201C9000874B8
:0201CA000872B9
:0201CB00086FBB
:0201CC00086DBC
:0201CD00086BBD
:0201CE000869BE
:0201CF000866C0
:0201D0000864C1
:0201D1000862C2
:0201D2000860C3
:0201D300085EC4
:0201D400085BC6
:0201D5000859C7
:0201D6000857C8
:0201D7000855C9
:0201D8000853CA
:0201D9000851CB
:0201DA00084ECD
:0201DB00084CCE
:0201DC00084ACF
:0201DD000848D0
:0201DE000846D1
:0201DF000844D2
:0201E0000842D3
:0201E100083FD5
:0201E200083DD6
:0201E300083BD7
:0201E4000839D8
:0201E5000837D9
:0201E6000835DA
:0201E7000833DB
:0201E8000831DC
:0201E900082FDD
:0201EA00082CDF
:0201EB00082AE0
:0201EC000828E1
:0201ED000826E2
:0201EE000824E3
:0201EF000822E4
:0201F0000820E5
:0201F100081EE6
:0201F200081CE7
:0201F300081AE8
:0201F4000818E9
:0201F5000816EA
:0201F6000814EB
:0201F7000812EC
:0201F8000810ED
:0201F900080EEE
:0201FA00080CEF
:0201FB00080AF0
:0201FC000808F1
:0201FD000806F2
:0201FE000804F3
:0201FF000802F4
:00000001ff
