:020000040000FA
:0100000008F7
:0100010008F6
:0100020008F5
:0100030008F4
:0100040008F3
:0100050008F2
:0100060008F1
:0100070008F0
:0100080008EF
:0100090008EE
:01000A0008ED
:01000B0008EC
:01000C0008EB
:01000D0008EA
:01000E0008E9
:01000F0008E8
:0100100008E7
:0100110008E6
:0100120008E5
:0100130008E4
:0100140008E3
:0100150008E2
:0100160008E1
:0100170008E0
:0100180008DF
:0100190008DE
:01001A0008DD
:01001B0008DC
:01001C0008DB
:01001D0008DA
:01001E0008D9
:01001F0008D8
:0100200008D7
:0100210008D6
:0100220008D5
:0100230008D4
:0100240009D2
:0100250009D1
:0100260009D0
:0100270009CF
:0100280009CE
:0100290009CD
:01002A0009CC
:01002B0009CB
:01002C0009CA
:01002D0009C9
:01002E0009C8
:01002F0009C7
:0100300009C6
:0100310009C5
:0100320009C4
:0100330009C3
:0100340009C2
:0100350009C1
:0100360009C0
:0100370009BF
:0100380009BE
:0100390009BD
:01003A0009BC
:01003B0009BB
:01003C0009BA
:01003D0009B9
:01003E0009B8
:01003F0009B7
:0100400009B6
:0100410009B5
:0100420009B4
:0100430009B3
:0100440009B2
:0100450009B1
:0100460009B0
:0100470009AF
:0100480009AE
:0100490009AD
:01004A0009AC
:01004B0009AB
:01004C0009AA
:01004D0009A9
:01004E0009A8
:01004F0009A7
:010050000AA5
:010051000AA4
:010052000AA3
:010053000AA2
:010054000AA1
:010055000AA0
:010056000A9F
:010057000A9E
:010058000A9D
:010059000A9C
:01005A000A9B
:01005B000A9A
:01005C000A99
:01005D000A98
:01005E000A97
:01005F000A96
:010060000A95
:010061000A94
:010062000A93
:010063000A92
:010064000A91
:010065000A90
:010066000A8F
:010067000A8E
:010068000A8D
:010069000A8C
:01006A000A8B
:01006B000A8A
:01006C000A89
:01006D000A88
:01006E000A87
:01006F000A86
:010070000A85
:010071000A84
:010072000A83
:010073000A82
:010074000A81
:010075000A80
:010076000A7F
:010077000A7E
:010078000A7D
:010079000A7C
:01007A000A7B
:01007B000A7A
:01007C000A79
:01007D000A78
:01007E000A77
:01007F000A76
:010080000A75
:010081000A74
:010082000A73
:010083000A72
:010084000A71
:010085000A70
:010086000A6F
:010087000A6E
:010088000B6C
:010089000B6B
:01008A000B6A
:01008B000B69
:01008C000B68
:01008D000B67
:01008E000B66
:01008F000B65
:010090000B64
:010091000B63
:010092000B62
:010093000B61
:010094000B60
:010095000B5F
:010096000B5E
:010097000B5D
:010098000B5C
:010099000B5B
:01009A000B5A
:01009B000B59
:01009C000B58
:01009D000B57
:01009E000B56
:01009F000B55
:0100A0000B54
:0100A1000B53
:0100A2000B52
:0100A3000B51
:0100A4000B50
:0100A5000B4F
:0100A6000B4E
:0100A7000B4D
:0100A8000B4C
:0100A9000B4B
:0100AA000B4A
:0100AB000B49
:0100AC000B48
:0100AD000B47
:0100AE000B46
:0100AF000B45
:0100B0000B44
:0100B1000B43
:0100B2000B42
:0100B3000B41
:0100B4000B40
:0100B5000B3F
:0100B6000B3E
:0100B7000B3D
:0100B8000B3C
:0100B9000B3B
:0100BA000B3A
:0100BB000B39
:0100BC000B38
:0100BD000B37
:0100BE000B36
:0100BF000B35
:0100C0000B34
:0100C1000B33
:0100C2000B32
:0100C3000B31
:0100C4000B30
:0100C5000B2F
:0100C6000B2E
:0100C7000B2D
:0100C8000B2C
:0100C9000B2B
:0100CA000B2A
:0100CB000B29
:0100CC000B28
:0100CD000B27
:0100CE000B26
:0100CF000B25
:0100D0000B24
:0100D1000B23
:0100D2000B22
:0100D3000B21
:0100D4000B20
:0100D5000C1E
:0100D6000C1D
:0100D7000C1C
:0100D8000C1B
:0100D9000C1A
:0100DA000C19
:0100DB000C18
:0100DC000C17
:0100DD000C16
:0100DE000C15
:0100DF000C14
:0100E0000C13
:0100E1000C12
:0100E2000C11
:0100E3000C10
:0100E4000C0F
:0100E5000C0E
:0100E6000C0D
:0100E7000C0C
:0100E8000C0B
:0100E9000C0A
:0100EA000C09
:0100EB000C08
:0100EC000C07
:0100ED000C06
:0100EE000C05
:0100EF000C04
:0100F0000C03
:0100F1000C02
:0100F2000C01
:0100F3000C00
:0100F4000CFF
:0100F5000CFE
:0100F6000CFD
:0100F7000CFC
:0100F8000CFB
:0100F9000CFA
:0100FA000CF9
:0100FB000CF8
:0100FC000CF7
:0100FD000CF6
:0100FE000CF5
:0100FF000CF4
:010100000CF2
:010101000CF1
:010102000CF0
:010103000CEF
:010104000CEE
:010105000CED
:010106000CEC
:010107000CEB
:010108000CEA
:010109000CE9
:01010A000CE8
:01010B000CE7
:01010C000CE6
:01010D000CE5
:01010E000CE4
:01010F000CE3
:010110000CE2
:010111000CE1
:010112000CE0
:010113000CDF
:010114000CDE
:010115000CDD
:010116000CDC
:010117000CDB
:010118000CDA
:010119000CD9
:01011A000CD8
:01011B000CD7
:01011C000CD6
:01011D000CD5
:01011E000CD4
:01011F000CD3
:010120000CD2
:010121000CD1
:010122000CD0
:010123000CCF
:010124000CCE
:010125000CCD
:010126000CCC
:010127000CCB
:010128000CCA
:010129000CC9
:01012A000CC8
:01012B000CC7
:01012C000CC6
:01012D000CC5
:01012E000CC4
:01012F000CC3
:010130000CC2
:010131000CC1
:010132000CC0
:010133000CBF
:010134000CBE
:010135000CBD
:010136000CBC
:010137000CBB
:010138000CBA
:010139000CB9
:01013A000CB8
:01013B000CB7
:01013C000CB6
:01013D000CB5
:01013E000CB4
:01013F000CB3
:010140000CB2
:010141000CB1
:010142000CB0
:010143000CAF
:010144000CAE
:010145000DAC
:010146000DAB
:010147000DAA
:010148000DA9
:010149000DA8
:01014A000DA7
:01014B000DA6
:01014C000DA5
:01014D000DA4
:01014E000DA3
:01014F000DA2
:010150000DA1
:010151000DA0
:010152000D9F
:010153000D9E
:010154000D9D
:010155000D9C
:010156000D9B
:010157000D9A
:010158000D99
:010159000D98
:01015A000D97
:01015B000D96
:01015C000D95
:01015D000D94
:01015E000D93
:01015F000D92
:010160000D91
:010161000D90
:010162000D8F
:010163000D8E
:010164000D8D
:010165000D8C
:010166000D8B
:010167000D8A
:010168000D89
:010169000D88
:01016A000D87
:01016B000D86
:01016C000D85
:01016D000D84
:01016E000D83
:01016F000D82
:010170000D81
:010171000D80
:010172000D7F
:010173000D7E
:010174000D7D
:010175000D7C
:010176000D7B
:010177000D7A
:010178000D79
:010179000D78
:01017A000D77
:01017B000D76
:01017C000D75
:01017D000D74
:01017E000D73
:01017F000D72
:010180000D71
:010181000D70
:010182000D6F
:010183000D6E
:010184000D6D
:010185000D6C
:010186000D6B
:010187000D6A
:010188000D69
:010189000D68
:01018A000D67
:01018B000D66
:01018C000D65
:01018D000D64
:01018E000D63
:01018F000D62
:010190000D61
:010191000D60
:010192000D5F
:010193000D5E
:010194000D5D
:010195000D5C
:010196000D5B
:010197000D5A
:010198000D59
:010199000D58
:01019A000D57
:01019B000D56
:01019C000D55
:01019D000D54
:01019E000D53
:01019F000D52
:0101A0000D51
:0101A1000D50
:0101A2000D4F
:0101A3000D4E
:0101A4000D4D
:0101A5000D4C
:0101A6000D4B
:0101A7000D4A
:0101A8000D49
:0101A9000D48
:0101AA000D47
:0101AB000D46
:0101AC000D45
:0101AD000D44
:0101AE000D43
:0101AF000D42
:0101B0000D41
:0101B1000D40
:0101B2000D3F
:0101B3000D3E
:0101B4000D3D
:0101B5000D3C
:0101B6000D3B
:0101B7000D3A
:0101B8000D39
:0101B9000D38
:0101BA000D37
:0101BB000D36
:0101BC000D35
:0101BD000D34
:0101BE000D33
:0101BF000D32
:0101C0000D31
:0101C1000D30
:0101C2000D2F
:0101C3000D2E
:0101C4000D2D
:0101C5000D2C
:0101C6000D2B
:0101C7000D2A
:0101C8000D29
:0101C9000D28
:0101CA000D27
:0101CB000D26
:0101CC000D25
:0101CD000D24
:0101CE000D23
:0101CF000D22
:0101D0000D21
:0101D1000D20
:0101D2000D1F
:0101D3000D1E
:0101D4000D1D
:0101D5000D1C
:0101D6000D1B
:0101D7000D1A
:0101D8000D19
:0101D9000D18
:0101DA000D17
:0101DB000D16
:0101DC000D15
:0101DD000D14
:0101DE000D13
:0101DF000D12
:0101E0000D11
:0101E1000D10
:0101E2000D0F
:0101E3000D0E
:0101E4000D0D
:0101E5000D0C
:0101E6000D0B
:0101E7000D0A
:0101E8000D09
:0101E9000D08
:0101EA000D07
:0101EB000D06
:0101EC000D05
:0101ED000D04
:0101EE000D03
:0101EF000D02
:0101F0000D01
:0101F1000D00
:0101F2000DFF
:0101F3000DFE
:0101F4000DFD
:0101F5000DFC
:0101F6000DFB
:0101F7000DFA
:0101F8000DF9
:0101F9000DF8
:0101FA000DF7
:0101FB000DF6
:0101FC000DF5
:0101FD000DF4
:0101FE000DF3
:0101FF000DF2
:00000001ff
